MPLINK 5.09, LINKER
Linker Map File - Created Tue Jun 14 21:18:55 2022

                                 Section Info
                  Section       Type    Address   Location Size(Bytes)
                ---------  ---------  ---------  ---------  ---------
                   .org_0       code   0x000000    program   0x000002
                   .cinit    romdata   0x000001    program   0x000004
                   .org_1       code   0x000004    program   0x000374
.config_2007_BUILD/DEFAULT/PRODUCTION/PROGRAM       code   0x002007    program   0x000002
.config_2008_BUILD/DEFAULT/PRODUCTION/PROGRAM       code   0x002008    program   0x000002



                              Program Memory Usage 
                               Start         End      
                           ---------   ---------      
                            0x000000    0x000002      
                            0x000004    0x0001bd      
                            0x002007    0x002008      
            447 out of 8455 program addresses used, program memory utilization is 5%



                              Symbols - Sorted by Name
                     Name    Address   Location    Storage File                     
                ---------  ---------  ---------  --------- ---------                
           ACTIVAR_ACTUAL   0x000180    program     static C:\EDII_TP\tp-final-2022\Mplab\TP Final.X\program.asm
        ACTIVAR_PROGRAMED   0x00017d    program     static C:\EDII_TP\tp-final-2022\Mplab\TP Final.X\program.asm
               ADD_FACTOR   0x0001a3    program     static C:\EDII_TP\tp-final-2022\Mplab\TP Final.X\program.asm
              ADD_HUNDRED   0x0001b0    program     static C:\EDII_TP\tp-final-2022\Mplab\TP Final.X\program.asm
                  ADD_TEN   0x0001b8    program     static C:\EDII_TP\tp-final-2022\Mplab\TP Final.X\program.asm
             BARRIDO_COL0   0x000038    program     static C:\EDII_TP\tp-final-2022\Mplab\TP Final.X\program.asm
           BARRIDO_COL0_5   0x00003e    program     static C:\EDII_TP\tp-final-2022\Mplab\TP Final.X\program.asm
           BARRIDO_COL0_6   0x000044    program     static C:\EDII_TP\tp-final-2022\Mplab\TP Final.X\program.asm
           BARRIDO_COL0_7   0x00004a    program     static C:\EDII_TP\tp-final-2022\Mplab\TP Final.X\program.asm
             BARRIDO_COL1   0x000050    program     static C:\EDII_TP\tp-final-2022\Mplab\TP Final.X\program.asm
           BARRIDO_COL1_5   0x000056    program     static C:\EDII_TP\tp-final-2022\Mplab\TP Final.X\program.asm
           BARRIDO_COL1_6   0x00005c    program     static C:\EDII_TP\tp-final-2022\Mplab\TP Final.X\program.asm
           BARRIDO_COL1_7   0x000062    program     static C:\EDII_TP\tp-final-2022\Mplab\TP Final.X\program.asm
             BARRIDO_COL2   0x000068    program     static C:\EDII_TP\tp-final-2022\Mplab\TP Final.X\program.asm
           BARRIDO_COL2_5   0x00006e    program     static C:\EDII_TP\tp-final-2022\Mplab\TP Final.X\program.asm
           BARRIDO_COL2_6   0x000074    program     static C:\EDII_TP\tp-final-2022\Mplab\TP Final.X\program.asm
           BARRIDO_COL2_7   0x00007a    program     static C:\EDII_TP\tp-final-2022\Mplab\TP Final.X\program.asm
             BARRIDO_COL3   0x000080    program     static C:\EDII_TP\tp-final-2022\Mplab\TP Final.X\program.asm
           BARRIDO_COL3_5   0x000086    program     static C:\EDII_TP\tp-final-2022\Mplab\TP Final.X\program.asm
           BARRIDO_COL3_6   0x00008c    program     static C:\EDII_TP\tp-final-2022\Mplab\TP Final.X\program.asm
           BARRIDO_COL3_7   0x000092    program     static C:\EDII_TP\tp-final-2022\Mplab\TP Final.X\program.asm
     CALCULATE_ACTUAL_BCD   0x0001a6    program     static C:\EDII_TP\tp-final-2022\Mplab\TP Final.X\program.asm
           CANCEL_EDITION   0x0000c9    program     static C:\EDII_TP\tp-final-2022\Mplab\TP Final.X\program.asm
              DEC_C_DEL_0   0x000199    program     static C:\EDII_TP\tp-final-2022\Mplab\TP Final.X\program.asm
              DEC_C_DEL_1   0x000194    program     static C:\EDII_TP\tp-final-2022\Mplab\TP Final.X\program.asm
       DEC_PRODUCT_FACTOR   0x00019e    program     static C:\EDII_TP\tp-final-2022\Mplab\TP Final.X\program.asm
            DEC_STS_COUNT   0x000170    program     static C:\EDII_TP\tp-final-2022\Mplab\TP Final.X\program.asm
                DELAY_5mS   0x000192    program     static C:\EDII_TP\tp-final-2022\Mplab\TP Final.X\program.asm
            DELAY_BUCLE_0   0x000197    program     static C:\EDII_TP\tp-final-2022\Mplab\TP Final.X\program.asm
            DISPLAY_TABLE   0x000183    program     static C:\EDII_TP\tp-final-2022\Mplab\TP Final.X\program.asm
               FIN_INT_PB   0x0000dd    program     static C:\EDII_TP\tp-final-2022\Mplab\TP Final.X\program.asm
                 INIT_ADC   0x000163    program     static C:\EDII_TP\tp-final-2022\Mplab\TP Final.X\program.asm
                  INT_ADC   0x00000e    program     static C:\EDII_TP\tp-final-2022\Mplab\TP Final.X\program.asm
              INT_ADC_END   0x000026    program     static C:\EDII_TP\tp-final-2022\Mplab\TP Final.X\program.asm
                   INT_PB   0x000028    program     static C:\EDII_TP\tp-final-2022\Mplab\TP Final.X\program.asm
                   INT_T0   0x00002f    program     static C:\EDII_TP\tp-final-2022\Mplab\TP Final.X\program.asm
           KEY_PAD_ACTION   0x000098    program     static C:\EDII_TP\tp-final-2022\Mplab\TP Final.X\program.asm
                 LOAD_CTX   0x0000e6    program     static C:\EDII_TP\tp-final-2022\Mplab\TP Final.X\program.asm
                  PRODUCT   0x00019c    program     static C:\EDII_TP\tp-final-2022\Mplab\TP Final.X\program.asm
               RESET_DD_S   0x00012c    program     static C:\EDII_TP\tp-final-2022\Mplab\TP Final.X\program.asm
              RET_PRODUCT   0x0001a1    program     static C:\EDII_TP\tp-final-2022\Mplab\TP Final.X\program.asm
             SAVE_EDITION   0x0000b3    program     static C:\EDII_TP\tp-final-2022\Mplab\TP Final.X\program.asm
                    SETUP   0x0000eb    program     static C:\EDII_TP\tp-final-2022\Mplab\TP Final.X\program.asm
              SET_EDITION   0x0000ac    program     static C:\EDII_TP\tp-final-2022\Mplab\TP Final.X\program.asm
             SET_TS_DIGIT   0x0000cc    program     static C:\EDII_TP\tp-final-2022\Mplab\TP Final.X\program.asm
                SET_UNITS   0x0001bb    program     static C:\EDII_TP\tp-final-2022\Mplab\TP Final.X\program.asm
              SHOW_ACTUAL   0x000153    program     static C:\EDII_TP\tp-final-2022\Mplab\TP Final.X\program.asm
               SHOW_DIGIT   0x00015e    program     static C:\EDII_TP\tp-final-2022\Mplab\TP Final.X\program.asm
             SHOW_DISPLAY   0x000125    program     static C:\EDII_TP\tp-final-2022\Mplab\TP Final.X\program.asm
                SHOW_EDIT   0x00013c    program     static C:\EDII_TP\tp-final-2022\Mplab\TP Final.X\program.asm
          SHOW_NEXT_DIGIT   0x00012e    program     static C:\EDII_TP\tp-final-2022\Mplab\TP Final.X\program.asm
           SHOW_PROGRAMED   0x000149    program     static C:\EDII_TP\tp-final-2022\Mplab\TP Final.X\program.asm
         VALIDATE_HUNDRED   0x0001ab    program     static C:\EDII_TP\tp-final-2022\Mplab\TP Final.X\program.asm
             VALIDATE_TEN   0x0001b3    program     static C:\EDII_TP\tp-final-2022\Mplab\TP Final.X\program.asm
 VALIDATE_TURN_OFF_HEATER   0x000016    program     static C:\EDII_TP\tp-final-2022\Mplab\TP Final.X\program.asm
  VALIDATE_TURN_ON_HEATER   0x00001e    program     static C:\EDII_TP\tp-final-2022\Mplab\TP Final.X\program.asm



                              Symbols - Sorted by Address
                     Name    Address   Location    Storage File                     
                ---------  ---------  ---------  --------- ---------                
                  INT_ADC   0x00000e    program     static C:\EDII_TP\tp-final-2022\Mplab\TP Final.X\program.asm
 VALIDATE_TURN_OFF_HEATER   0x000016    program     static C:\EDII_TP\tp-final-2022\Mplab\TP Final.X\program.asm
  VALIDATE_TURN_ON_HEATER   0x00001e    program     static C:\EDII_TP\tp-final-2022\Mplab\TP Final.X\program.asm
              INT_ADC_END   0x000026    program     static C:\EDII_TP\tp-final-2022\Mplab\TP Final.X\program.asm
                   INT_PB   0x000028    program     static C:\EDII_TP\tp-final-2022\Mplab\TP Final.X\program.asm
                   INT_T0   0x00002f    program     static C:\EDII_TP\tp-final-2022\Mplab\TP Final.X\program.asm
             BARRIDO_COL0   0x000038    program     static C:\EDII_TP\tp-final-2022\Mplab\TP Final.X\program.asm
           BARRIDO_COL0_5   0x00003e    program     static C:\EDII_TP\tp-final-2022\Mplab\TP Final.X\program.asm
           BARRIDO_COL0_6   0x000044    program     static C:\EDII_TP\tp-final-2022\Mplab\TP Final.X\program.asm
           BARRIDO_COL0_7   0x00004a    program     static C:\EDII_TP\tp-final-2022\Mplab\TP Final.X\program.asm
             BARRIDO_COL1   0x000050    program     static C:\EDII_TP\tp-final-2022\Mplab\TP Final.X\program.asm
           BARRIDO_COL1_5   0x000056    program     static C:\EDII_TP\tp-final-2022\Mplab\TP Final.X\program.asm
           BARRIDO_COL1_6   0x00005c    program     static C:\EDII_TP\tp-final-2022\Mplab\TP Final.X\program.asm
           BARRIDO_COL1_7   0x000062    program     static C:\EDII_TP\tp-final-2022\Mplab\TP Final.X\program.asm
             BARRIDO_COL2   0x000068    program     static C:\EDII_TP\tp-final-2022\Mplab\TP Final.X\program.asm
           BARRIDO_COL2_5   0x00006e    program     static C:\EDII_TP\tp-final-2022\Mplab\TP Final.X\program.asm
           BARRIDO_COL2_6   0x000074    program     static C:\EDII_TP\tp-final-2022\Mplab\TP Final.X\program.asm
           BARRIDO_COL2_7   0x00007a    program     static C:\EDII_TP\tp-final-2022\Mplab\TP Final.X\program.asm
             BARRIDO_COL3   0x000080    program     static C:\EDII_TP\tp-final-2022\Mplab\TP Final.X\program.asm
           BARRIDO_COL3_5   0x000086    program     static C:\EDII_TP\tp-final-2022\Mplab\TP Final.X\program.asm
           BARRIDO_COL3_6   0x00008c    program     static C:\EDII_TP\tp-final-2022\Mplab\TP Final.X\program.asm
           BARRIDO_COL3_7   0x000092    program     static C:\EDII_TP\tp-final-2022\Mplab\TP Final.X\program.asm
           KEY_PAD_ACTION   0x000098    program     static C:\EDII_TP\tp-final-2022\Mplab\TP Final.X\program.asm
              SET_EDITION   0x0000ac    program     static C:\EDII_TP\tp-final-2022\Mplab\TP Final.X\program.asm
             SAVE_EDITION   0x0000b3    program     static C:\EDII_TP\tp-final-2022\Mplab\TP Final.X\program.asm
           CANCEL_EDITION   0x0000c9    program     static C:\EDII_TP\tp-final-2022\Mplab\TP Final.X\program.asm
             SET_TS_DIGIT   0x0000cc    program     static C:\EDII_TP\tp-final-2022\Mplab\TP Final.X\program.asm
               FIN_INT_PB   0x0000dd    program     static C:\EDII_TP\tp-final-2022\Mplab\TP Final.X\program.asm
                 LOAD_CTX   0x0000e6    program     static C:\EDII_TP\tp-final-2022\Mplab\TP Final.X\program.asm
                    SETUP   0x0000eb    program     static C:\EDII_TP\tp-final-2022\Mplab\TP Final.X\program.asm
             SHOW_DISPLAY   0x000125    program     static C:\EDII_TP\tp-final-2022\Mplab\TP Final.X\program.asm
               RESET_DD_S   0x00012c    program     static C:\EDII_TP\tp-final-2022\Mplab\TP Final.X\program.asm
          SHOW_NEXT_DIGIT   0x00012e    program     static C:\EDII_TP\tp-final-2022\Mplab\TP Final.X\program.asm
                SHOW_EDIT   0x00013c    program     static C:\EDII_TP\tp-final-2022\Mplab\TP Final.X\program.asm
           SHOW_PROGRAMED   0x000149    program     static C:\EDII_TP\tp-final-2022\Mplab\TP Final.X\program.asm
              SHOW_ACTUAL   0x000153    program     static C:\EDII_TP\tp-final-2022\Mplab\TP Final.X\program.asm
               SHOW_DIGIT   0x00015e    program     static C:\EDII_TP\tp-final-2022\Mplab\TP Final.X\program.asm
                 INIT_ADC   0x000163    program     static C:\EDII_TP\tp-final-2022\Mplab\TP Final.X\program.asm
            DEC_STS_COUNT   0x000170    program     static C:\EDII_TP\tp-final-2022\Mplab\TP Final.X\program.asm
        ACTIVAR_PROGRAMED   0x00017d    program     static C:\EDII_TP\tp-final-2022\Mplab\TP Final.X\program.asm
           ACTIVAR_ACTUAL   0x000180    program     static C:\EDII_TP\tp-final-2022\Mplab\TP Final.X\program.asm
            DISPLAY_TABLE   0x000183    program     static C:\EDII_TP\tp-final-2022\Mplab\TP Final.X\program.asm
                DELAY_5mS   0x000192    program     static C:\EDII_TP\tp-final-2022\Mplab\TP Final.X\program.asm
              DEC_C_DEL_1   0x000194    program     static C:\EDII_TP\tp-final-2022\Mplab\TP Final.X\program.asm
            DELAY_BUCLE_0   0x000197    program     static C:\EDII_TP\tp-final-2022\Mplab\TP Final.X\program.asm
              DEC_C_DEL_0   0x000199    program     static C:\EDII_TP\tp-final-2022\Mplab\TP Final.X\program.asm
                  PRODUCT   0x00019c    program     static C:\EDII_TP\tp-final-2022\Mplab\TP Final.X\program.asm
       DEC_PRODUCT_FACTOR   0x00019e    program     static C:\EDII_TP\tp-final-2022\Mplab\TP Final.X\program.asm
              RET_PRODUCT   0x0001a1    program     static C:\EDII_TP\tp-final-2022\Mplab\TP Final.X\program.asm
               ADD_FACTOR   0x0001a3    program     static C:\EDII_TP\tp-final-2022\Mplab\TP Final.X\program.asm
     CALCULATE_ACTUAL_BCD   0x0001a6    program     static C:\EDII_TP\tp-final-2022\Mplab\TP Final.X\program.asm
         VALIDATE_HUNDRED   0x0001ab    program     static C:\EDII_TP\tp-final-2022\Mplab\TP Final.X\program.asm
              ADD_HUNDRED   0x0001b0    program     static C:\EDII_TP\tp-final-2022\Mplab\TP Final.X\program.asm
             VALIDATE_TEN   0x0001b3    program     static C:\EDII_TP\tp-final-2022\Mplab\TP Final.X\program.asm
                  ADD_TEN   0x0001b8    program     static C:\EDII_TP\tp-final-2022\Mplab\TP Final.X\program.asm
                SET_UNITS   0x0001bb    program     static C:\EDII_TP\tp-final-2022\Mplab\TP Final.X\program.asm


